:020000040800F2
:1000000000280020A50D0008490D00084F0D00082C
:10001000550D00085B0D0008610D00080000000090
:10002000000000000000000000000000670D000854
:10003000730D0008000000007F0D00088B0D000804
:10004000ED0D0008ED0D0008ED0D0008ED0D0008A8
:10005000ED0D0008ED0D0008ED0D0008ED0D000898
:10006000ED0D0008ED0D0008ED0D0008ED0D000888
:10007000ED0D0008ED0D0008ED0D0008ED0D000878
:10008000ED0D0008ED0D0008ED0D0008ED0D000868
:10009000ED0D0008ED0D0008ED0D0008ED0D000858
:1000A000ED0D0008ED0D0008ED0D0008ED0D000848
:1000B000ED0D0008ED0D000800000000ED0D00083A
:1000C000ED0D00080000000000000000ED0D00082C
:1000D00000000000ED0D0008ED0D0008000000001C
:1000E000ED0D0008ED0D0008ED0D0008000000000A
:1000F0000000000000000000000000000000000000
:0C01000000000000000000005FF808F1A3
:10010C0010B5054C237833B9044B13B10448AFF345
:10011C0000800123237010BD0C00002000000000A3
:10012C002C1C000808B5034B1BB103490348AFF363
:10013C00008008BD00000000100000202C1C0008EE
:10014C0080B582B000AF78607B68092B00F2C98162
:10015C0001A252F823F000BF8D010008E301000852
:10016C00390200088F020008E50200083B03000872
:10017C0091030008E70300083D04000899040008F7
:10018C0000224FF48071C04801F010F900224FF4A6
:10019C000071BD4801F00AF900224FF48061BA48A1
:1001AC0001F004F900224FF40061B74801F0FEF8A9
:1001BC0000224FF48051B44801F0F8F800224FF4BB
:1001CC000051B14801F0F2F801224FF48041AE48E1
:1001DC0001F0ECF885E101224FF48071AA4801F09E
:1001EC00E5F800224FF40071A74801F0DFF8002277
:1001FC004FF48061A44801F0D9F801224FF400615A
:10020C00A14801F0D3F801224FF480519E4801F02F
:10021C00CDF801224FF400519B4801F0C7F80122A0
:10022C004FF48041984801F0C1F85AE100224FF494
:10023C008071954801F0BAF800224FF40071924891
:10024C0001F0B4F801224FF480618F4801F0AEF850
:10025C0000224FF400618C4801F0A8F800224FF402
:10026C008051894801F0A2F801224FF400518648D0
:10027C0001F09CF800224FF48041834801F096F87D
:10028C002FE100224FF480717F4801F08FF800229B
:10029C004FF400717C4801F089F800224FF4806122
:1002AC00794801F083F800224FF40061764801F0A0
:1002BC007DF801224FF48051734801F077F8012248
:1002CC004FF40051704801F071F800224FF4804156
:1002DC006D4801F06BF804E101224FF480716A481B
:1002EC0001F064F800224FF40071674801F05EF8E9
:1002FC0000224FF48061644801F058F801224FF459
:10030C000061614801F052F801224FF480515E48BF
:10031C0001F04CF800224FF400515B4801F046F814
:10032C0000224FF48041584801F040F8D9E00022F7
:10033C004FF48071544801F039F801224FF40071E8
:10034C00514801F033F800224FF480614E4801F01F
:10035C002DF800224FF400614B4801F027F80122E0
:10036C004FF48051484801F021F800224FF400511D
:10037C00454801F01BF800224FF48041424801F03F
:10038C0015F8AEE000224FF480713F4801F00EF8F2
:10039C0001224FF400713C4801F008F800224FF4A0
:1003AC008061394801F002F800224FF400613648B0
:1003BC0000F0FCFF00224FF48051334800F0F6FFB0
:1003CC0000224FF40051304800F0F0FF00224FF4AF
:1003DC0080412D4800F0EAFF83E000224FF4807149
:1003EC00294800F0E3FF00224FF40071264800F08A
:1003FC00DDFF00224FF48061234800F0D7FF01227B
:10040C004FF40061204800F0D1FF01224FF48051DD
:10041C001D4800F0CBFF01224FF400511A4800F0A8
:10042C00C5FF01224FF48041174800F0BFFF58E090
:10043C0000224FF48071144800F0B8FF00224FF4F2
:10044C000071114800F0B2FF00224FF480610E4899
:10045C0000F0ACFF00224FF400610B4800F0A6FF47
:10046C0000224FF48051084800F0A0FF00224FF406
:10047C000051054800F09AFF00224FF480410248D9
:10048C0000F094FF2DE000BF0008014000224FF463
:10049C008071164800F08AFF00224FF40071134857
:1004AC0000F084FF00224FF48061104800F07EFFC2
:1004BC0000224FF400610D4800F078FF01224FF448
:1004CC0080510A4800F072FF00224FF40051074897
:1004DC0000F06CFF00224FF48041044800F066FFEE
:1004EC0000BF00BF0837BD4680BD00BF00080140FB
:1004FC0080B582B000AF78607B68092B00F2B281C6
:10050C0001A252F823F000BF3D0500088F0500083A
:10051C00E10500083306000885060008D706000828
:10052C00290700087B070008CD0700081F080008F2
:10053C0000224021CD4800F039FF00228021CB4819
:10054C0000F034FF00224FF48071C84800F02EFFF9
:10055C0000224FF40071C54800F028FF00224FF430
:10056C008061C24800F022FF00224FF40061BF48B6
:10057C0000F01CFF01224FF48051BC4800F016FF24
:10058C0070E101224021B94800F010FF00228021C7
:10059C00B64800F00BFF00224FF48071B34800F016
:1005AC0005FF01224FF40071B04800F0FFFE01225C
:1005BC004FF48061AD4800F0F9FE01224FF4006168
:1005CC00AA4800F0F3FE01224FF48051A74800F036
:1005DC00EDFE47E100224021A44800F0E7FE002296
:1005EC008021A24800F0E2FE01224FF480719F4866
:1005FC0000F0DCFE00224FF400719C4800F0D6FEA7
:10060C0000224FF48061994800F0D0FE01224FF493
:10061C000061964800F0CAFE00224FF480519348C6
:10062C0000F0C4FE1EE100224021904800F0BEFE06
:10063C00002280218D4800F0B9FE00224FF4807119
:10064C008A4800F0B3FE00224FF40071874800F096
:10065C00ADFE01224FF48061844800F0A7FE012218
:10066C004FF40061814800F0A1FE00224FF480514C
:10067C007E4800F09BFEF5E0012240217B4800F013
:10068C0095FE00228021794800F090FE00224FF464
:10069C008071764800F08AFE01224FF40071734895
:1006AC0000F084FE01224FF48061704800F07EFE61
:1006BC0000224FF400616D4800F078FE00224FF4E8
:1006CC0080516A4800F072FECCE00022402167485D
:1006DC0000F06CFE01228021644800F067FE0022CD
:1006EC004FF48071614800F061FE00224FF40071FC
:1006FC005E4800F05BFE01224FF480615B4800F025
:10070C0055FE00224FF40061584800F04FFE0022C5
:10071C004FF48051554800F049FEA3E000224021DF
:10072C00524800F043FE01228021504800F03EFE6A
:10073C0000224FF480714D4800F038FE00224FF437
:10074C0000714A4800F032FE00224FF480614748A5
:10075C0000F02CFE00224FF40061444800F026FE0D
:10076C0000224FF48051414800F020FE7AE0002234
:10077C0040213E4800F01AFE002280213B4800F048
:10078C0015FE00224FF48071384800F00FFE012254
:10079C004FF40071354800F009FE01224FF48061DE
:1007AC00324800F003FE01224FF400612F4800F0A4
:1007BC00FDFD01224FF480512C4800F0F7FD51E073
:1007CC0000224021294800F0F1FD00228021274819
:1007DC0000F0ECFD00224FF48071244800F0E6FD9F
:1007EC0000224FF40071214800F0E0FD00224FF48C
:1007FC0080611E4800F0DAFD00224FF400611B48B6
:10080C0000F0D4FD00224FF48051184800F0CEFDCA
:10081C0028E000224021154800F0C8FD002280216C
:10082C00124800F0C3FD00224FF480710F4800F015
:10083C00BDFD00224FF400710C4800F0B7FD012201
:10084C004FF48061094800F0B1FD00224FF40061C3
:10085C00064800F0ABFD00224FF48051034800F035
:10086C00A5FD00BF00BF0837BD4680BD000C014090
:10087C0080B582B000AF05237B6003233B60012170
:10088C00344800F0ABFD2021324800F0A7FD786819
:10089C00FFF756FC3868FFF72BFE4FF47A7000F028
:1008AC0003FB7B68013B7B603B68013B3B607868EA
:1008BC00FFF746FC3868FFF71BFE4FF47A7000F028
:1008CC00F3FA7B68013B7B603B68013B3B607868DB
:1008DC00FFF736FC3868FFF70BFE4FF47A7000F028
:1008EC00E3FA7B68013B7B6002233B6020211948C3
:1008FC0000F074FD1021174800F070FD7868FFF7C8
:10090C001FFC3868FFF7F4FD4FF47A7000F0CCFA56
:10091C007B68013B7B603B68013B3B607868FFF781
:10092C000FFC3868FFF7E4FD4FF47A7000F0BCFA66
:10093C007B68013B7B603B68013B3B6010210548B9
:10094C0000F04CFD0121034800F048FD00BF0837C2
:10095C00BD4680BD000C014080B582B000AF0323C2
:10096C007B6005233B6004211F4800F037FD082104
:10097C001D4800F033FD7868FFF7E2FB3868FFF79D
:10098C00B7FD4FF47A7000F08FFA7B68013B7B6007
:10099C003B68013B3B607868FFF7D2FB3868FFF798
:1009AC00A7FD4FF47A7000F07FFA7B68013B7B6007
:1009BC003B68013B3B607868FFF7C2FB3868FFF788
:1009CC0097FD4FF47A7000F06FFA7B68013B7B6007
:1009DC003B68013B3B600421034800F0FFFC00BF77
:1009EC000837BD4680BD00BF000C014080B582B009
:1009FC0000AF02237B6002233B600221174800F00A
:100A0C00EDFC7868FFF79CFB3868FFF771FD4FF43D
:100A1C007A7000F049FA7B68013B7B603B68013BD4
:100A2C003B607868FFF78CFB3868FFF761FD4FF48B
:100A3C007A7000F039FA7B68013B7B603B68013BC4
:100A4C003B600221054800F0C9FC0821034800F076
:100A5C00C5FC00BF0837BD4680BD00BF000C01407F
:100A6C0080B500AFFFF704FFFFF776FFFFF7BEFF7F
:100A7C0000BF80BD80B582B000AF00F0B3F900F0CC
:100A8C0093F800F0CDF801222021454800F08EFCAF
:100A9C0001224021424800F089FC0122802140487B
:100AAC0000F084FC002201213E4800F07FFC002273
:100ABC0002213C4800F07AFC00220421394800F065
:100ACC0075FC00220821374800F070FC0022102130
:100ADC00344800F06BFC00222021324800F066FC08
:100AEC0001224FF480712E4800F060FC01224FF47B
:100AFC0000712B4800F05AFC01224FF48061284809
:100B0C0000F054FC01224FF40061254800F04EFC2B
:100B1C0001224FF48051224800F048FC01224FF48E
:100B2C0000511F4800F042FC01224FF480411C4848
:100B3C0000F03CFC012240211A4800F037FC012255
:100B4C008021184800F032FC01224FF480711548C6
:100B5C0000F02CFC01224FF40071124800F026FC2E
:100B6C0001224FF480610F4800F020FC01224FF469
:100B7C0000610C4800F01AFC01224FF48051094826
:100B8C0000F014FC06237B6004233B60FFF768FF36
:100B9C007B68013B7B603B68013B3B60F6E700BF39
:100BAC0000080140000C014080B590B000AF07F187
:100BBC00180328220021184601F02AF83B1D0022B8
:100BCC001A605A609A60DA601A610223BB610123D1
:100BDC00BB621023FB6200237B6307F118031846EA
:100BEC0000F016FC0346002B01D000F06FF80F2329
:100BFC007B600023BB600023FB6000233B61002370
:100C0C007B613B1D0021184600F082FE0346002B41
:100C1C0001D000F05BF800BF4037BD4680BD00003E
:100C2C0080B586B000AF07F1080300221A605A6045
:100C3C009A60DA60224B9B69214A43F0040393616A
:100C4C001F4B9B6903F004037B607B681C4B9B6907
:100C5C001B4A43F008039361194B9B6903F008038B
:100C6C003B603B68002247F6E171164800F09EFBA2
:100C7C00002241F6FF71144800F098FB47F6E1732F
:100C8C00BB600123FB6000233B6102237B6107F106
:100C9C00080319460B4800F00FFA41F6FF73BB60CE
:100CAC000123FB6000233B6102237B6107F10803F6
:100CBC001946054800F000FA00BF1837BD4680BD44
:100CCC000010024000080140000C014080B400AF4D
:100CDC0072B600BFFEE7000080B485B000AF154BC4
:100CEC009B69144A43F001039361124B9B6903F017
:100CFC000103BB60BB680F4BDB690E4A43F08053AA
:100D0C00D3610C4BDB6903F080537B607B680A4B2F
:100D1C005B68FB60FB6823F0E063FB60FB6843F0FF
:100D2C008063FB60044AFB68536000BF1437BD4608
:100D3C0080BC7047001002400000014080B400AF3E
:100D4C00FEE780B400AFFEE780B400AFFEE780B4EE
:100D5C0000AFFEE780B400AFFEE780B400AF00BF89
:100D6C00BD4680BC704780B400AF00BFBD4680BCA0
:100D7C00704780B400AF00BFBD4680BC704780B5E3
:100D8C0000AF00F075F800BF80BD80B400AF00BFAD
:100D9C00BD4680BC70470000FFF7F7FF0B480C49BD
:100DAC000C4A002302E0D458C4500433C4188C42BB
:100DBC00F9D3094A094C002301E013600432A24222
:100DCC00FBD300F001FFFFF755FE70470000002039
:100DDC000C000020701C00080C0000202C000020CF
:100DEC00FEE7000080B500AF084B1B68074A43F0D4
:100DFC0010031360032000F02BF90F2000F008F80B
:100E0C00FFF76AFF0023184680BD00BF0020024098
:100E1C0080B582B000AF7860124B1A68124B1B7809
:100E2C0019464FF47A73B3FBF1F3B2FBF3F31846A4
:100E3C0000F035F90346002B01D001230EE07B684E
:100E4C000F2B0AD8002279684FF0FF3000F00BF915
:100E5C00064A7B681360002300E00123184608371C
:100E6C00BD4680BD000000200800002004000020CA
:100E7C0080B400AF054B1B781A46054B1B68134416
:100E8C00034A136000BFBD4680BC704708000020B9
:100E9C002800002080B400AF024B1B681846BD46EA
:100EAC0080BC70472800002080B584B000AF78600B
:100EBC00FFF7F0FFB8607B68FB60FB68B3F1FF3FA6
:100ECC0005D00A4B1B781A46FB681344FB6000BF25
:100EDC00FFF7E0FF0246BB68D31AFA689A42F7D8CC
:100EEC0000BF00BF1037BD4680BD00BF080000200A
:100EFC0080B485B000AF78607B6803F00703FB60BB
:100F0C000C4BDB68BB60BA684FF6FF031340BB6049
:100F1C00FB681A02BB68134343F0BF6343F400330E
:100F2C00BB60044ABB68D36000BF1437BD4680BCAD
:100F3C00704700BF00ED00E080B400AF044BDB68ED
:100F4C001B0A03F007031846BD4680BC704700BF60
:100F5C0000ED00E080B483B000AF03463960FB7154
:100F6C0097F90730002B0ADB3B68DAB20C4997F98A
:100F7C0007301201D2B20B4483F800230AE03B681D
:100F8C00DAB20849FB7903F00F03043B1201D2B229
:100F9C000B441A7600BF0C37BD4680BC704700BFAF
:100FAC0000E100E000ED00E080B489B000AFF86033
:100FBC00B9607A60FB6803F00703FB61FB69C3F15E
:100FCC000703042B28BF0423BB61FB690433062BE6
:100FDC0002D9FB69033B00E000237B614FF0FF3239
:100FEC00BB6902FA03F3DA43BB681A407B699A4087
:100FFC004FF0FF317B6901FA03F3D9437B680B4057
:10100C00134318462437BD4680BC704780B582B068
:10101C0000AF78607B68013BB3F1807F01D3012383
:10102C000FE00A4A7B68013B53600F214FF0FF3001
:10103C00FFF790FF054B00229A60044B07221A60C1
:10104C00002318460837BD4680BD00BF10E000E005
:10105C0080B582B000AF78607868FFF749FF00BFB9
:10106C000837BD4680BD80B586B000AF0346B96079
:10107C007A60FB7300237B61FFF75EFF78617A680F
:10108C00B9687869FFF790FF024697F90F3011465F
:10109C001846FFF75FFF00BF1837BD4680BD80B50F
:1010AC0082B000AF78607868FFF7B0FF034618464F
:1010BC000837BD4680BD000080B48BB000AF7860AF
:1010CC00396000237B6200233B6248E101227B6A8A
:1010DC0002FA03F3FB613B681B68FA691340BB61BE
:1010EC00BA69FB699A4240F037813B685B68A34A56
:1010FC0093425ED0A14A934275D8A14A934258D0EC
:10110C009F4A93426FD89F4A934252D09D4A934232
:10111C0069D89D4A93424CD09B4A934263D89B4AD0
:10112C00934246D0994A93425DD8122B2AD8122B5F
:10113C0059D801A252F823F0BF11000899110008E8
:10114C00AB110008ED110008F3110008F3110008B1
:10115C00F3110008F3110008F3110008F311000853
:10116C00F3110008F3110008F3110008F311000843
:10117C00F3110008F3110008F3110008A111000885
:10118C00B5110008824A934213D02CE03B68DB680F
:10119C003B6229E03B68DB6804333B6224E03B683C
:1011AC00DB6808333B621FE03B68DB680C333B6257
:1011BC001AE03B689B68002B02D104233B6213E0CE
:1011CC003B689B68012B05D108233B627B68FA695D
:1011DC001A6109E008233B627B68FA695A6103E0F3
:1011EC0000233B6200E000BFBB69FF2B01D87B688A
:1011FC0001E07B6804337B61BB69FF2B02D87B6AFF
:10120C009B0002E07B6A083B9B003B617B691A6890
:10121C000F213B6901FA03F3DB431A40396A3B693E
:10122C0001FA03F31A437B691A603B685B6803F0AD
:10123C008053002B00F09080564B9B69554A43F02D
:10124C0001039361534B9B6903F00103BB60BB68C3
:10125C00514A7B6A9B08023352F82330FB607B6A4D
:10126C0003F003039B000F2202FA03F3DB43FA683B
:10127C001340FB607B68494A93420DD07B68484A17
:10128C00934207D07B68474A934201D1022304E082
:10129C00032302E0012300E000237A6A02F0030238
:1012AC0092009340FA681343FB603B497B6A9B08AE
:1012BC000233FA6841F823203B685B6803F480131F
:1012CC00002B06D0384B9A683749BB6913438B60A7
:1012DC0006E0354B9A68BB69DB43334913408B609E
:1012EC003B685B6803F40013002B06D02E4BDA68C6
:1012FC002D49BB691343CB6006E02B4BDA68BB6905
:10130C00DB4329491340CB603B685B6803F4003333
:10131C00002B06D0244B5A682349BB6913434B60FE
:10132C0006E0214B5A68BB69DB431F4913404B60F5
:10133C003B685B6803F48033002B06D01A4B1A68A9
:10134C001949BB6913430B6006E0174B1A68BB695C
:10135C00DB43154913400B607B6A01337B623B68AE
:10136C001A687B6A22FA03F3002B7FF4AFAE00BF3E
:10137C0000BF2C37BD4680BC704700BF0000321048
:10138C00000031100000221000002110000012108B
:10139C000000111000100240000001400008014044
:1013AC00000C0140001001400004014080B483B0E7
:1013BC0000AF78600B467B8013467B707B78002BEC
:1013CC0003D07A887B681A6103E07B881A047B68F7
:1013DC001A6100BF0C37BD4680BC704780B485B025
:1013EC0000AF78600B467B807B68DB68FB607A889B
:1013FC00FB6813401A04FB68D9437B880B401A43E3
:10140C007B681A6100BF1437BD4680BC7047000072
:10141C0080B586B000AF78607B68002B01D10123CA
:10142C006CE27B681B6803F00103002B00F08780E3
:10143C00924B5B6803F00C03042B0CD08F4B5B6856
:10144C0003F00C03082B12D18C4B5B6803F4803334
:10145C00B3F5803F0BD1894B1B6803F40033002B91
:10146C006CD07B685B68002B68D1012346E27B68FB
:10147C005B68B3F5803F06D1804B1B687F4A43F411
:10148C00803313602EE07B685B68002B0CD17B4BA8
:10149C001B687A4A23F480331360784B1B68774AB5
:1014AC0023F4802313601DE07B685B68B3F5A02FE9
:1014BC000CD1724B1B68714A43F4802313606F4B41
:1014CC001B686E4A43F4803313600BE06B4B1B6854
:1014DC006A4A23F480331360684B1B68674A23F411
:1014EC00802313607B685B68002B13D0FFF7D2FC62
:1014FC00386108E0FFF7CEFC02463B69D31A642B37
:10150C0001D90323FAE15D4B1B6803F40033002B74
:10151C00F0D014E0FFF7BEFC386108E0FFF7BAFC2E
:10152C0002463B69D31A642B01D90323E6E1534BE2
:10153C001B6803F40033002BF0D100E000BF7B6884
:10154C001B6803F00203002B63D04C4B5B6803F069
:10155C000C03002B0BD0494B5B6803F00C03082BDE
:10156C001CD1464B5B6803F48033002B16D1434BE4
:10157C001B6803F00203002B05D07B681B69012B51
:10158C0001D00123BAE13D4B1B6823F0F8027B68C4
:10159C005B69DB00394913430B603AE07B681B69DC
:1015AC00002B20D0364B01221A60FFF773FC3861F8
:1015BC0008E0FFF76FFC02463B69D31A022B01D9F6
:1015CC0003239BE12D4B1B6803F00203002BF0D08F
:1015DC002A4B1B6823F0F8027B685B69DB00274908
:1015EC0013430B6015E0264B00221A60FFF752FCE8
:1015FC00386108E0FFF74EFC02463B69D31A022B18
:10160C0001D903237AE11D4B1B6803F00203002B65
:10161C00F0D17B681B6803F00803002B3AD07B6881
:10162C009B69002B19D0174B01221A60FFF732FC73
:10163C00386108E0FFF72EFC02463B69D31A022BF7
:10164C0001D903235AE10D4B5B6A03F00203002B13
:10165C00F0D0012000F09AFA1CE00A4B00221A602C
:10166C00FFF718FC38610FE0FFF714FC02463B69EA
:10167C00D31A022B08D9032340E100BF001002400B
:10168C0000004242800442429E4B5B6A03F002031C
:10169C00002BE9D17B681B6803F00403002B00F0DE
:1016AC00A6800023FB75974BDB6903F08053002B5E
:1016BC000DD1944BDB69934A43F08053D361914B2A
:1016CC00DB6903F08053BB60BB680123FB758E4B59
:1016DC001B6803F48073002B18D18B4B1B688A4A50
:1016EC0043F480731360FFF7D5FB386108E0FFF714
:1016FC00D1FB02463B69D31A642B01D90323FDE0CD
:10170C00814B1B6803F48073002BF0D07B68DB6883
:10171C00012B06D17B4B1B6A7A4A43F001031362FF
:10172C002DE07B68DB68002B0CD1764B1B6A754A6D
:10173C0023F001031362734B1B6A724A23F00403F8
:10174C0013621CE07B68DB68052B0CD16D4B1B6AAC
:10175C006C4A43F0040313626A4B1B6A694A43F0F8
:10176C00010313620BE0674B1B6A664A23F001030B
:10177C001362644B1B6A634A23F0040313627B6895
:10178C00DB68002B15D0FFF785FB38610AE0FFF70B
:10179C0081FB02463B69D31A41F28832934201D94C
:1017AC000323ABE0574B1B6A03F00203002BEED074
:1017BC0014E0FFF76FFB38610AE0FFF76BFB0246A2
:1017CC003B69D31A41F28832934201D9032395E045
:1017DC004C4B1B6A03F00203002BEED1FB7D012B5B
:1017EC0005D1484BDB69474A23F08053D3617B68B2
:1017FC00DB69002B00F08180424B5B6803F00C032B
:10180C00082B61D07B68DB69022B46D13F4B002251
:10181C001A60FFF73FFB386108E0FFF73BFB02461D
:10182C003B69D31A022B01D9032367E0354B1B68A4
:10183C0003F00073002BF0D17B681B6AB3F5803F7B
:10184C0008D1304B5B6823F400327B689B682D49D0
:10185C0013434B602B4B5B6823F474127B68196A3F
:10186C007B685B6A0B43274913434B60274B012270
:10187C001A60FFF70FFB386108E0FFF70BFB02461D
:10188C003B69D31A022B01D9032337E01D4B1B688C
:10189C0003F00073002BF0D02FE01C4B00221A60D9
:1018AC00FFF7F8FA386108E0FFF7F4FA02463B69F3
:1018BC00D31A022B01D9032320E0124B1B6803F02F
:1018CC000073002BF0D118E07B68DB69012B01D190
:1018DC00012313E00B4B5B68FB60FB6803F4803265
:1018EC007B681B6A9A4206D1FB6803F470127B6812
:1018FC005B6A9A4201D0012300E000231846183796
:10190C00BD4680BD001002400070004060004242A5
:10191C0080B584B000AF786039607B68002B01D152
:10192C000123D0E06A4B1B6803F007033A689A4224
:10193C0010D9674B1B6823F0070265493B681343BA
:10194C000B60634B1B6803F007033A689A4201D0A3
:10195C000123B8E07B681B6803F00203002B20D046
:10196C007B681B6803F00403002B05D0594B5B68A4
:10197C00584A43F4E06353607B681B6803F0080328
:10198C00002B05D0534B5B68524A43F460535360B1
:10199C00504B5B6823F0F0027B689B684D49134306
:1019AC004B607B681B6803F00103002B40D07B6805
:1019BC005B68012B07D1474B1B6803F40033002BEA
:1019CC0015D101237FE07B685B68022B07D1414B6B
:1019DC001B6803F00073002B09D1012373E03D4B0E
:1019EC001B6803F00203002B01D101236BE0394B80
:1019FC005B6823F003027B685B68364913434B60DA
:101A0C00FFF748FAF8600AE0FFF744FA0246FB6871
:101A1C00D31A41F28832934201D9032353E02D4B60
:101A2C005B6803F00C027B685B689B009A42EBD10D
:101A3C00274B1B6803F007033A689A4210D2244BD9
:101A4C001B6823F0070222493B6813430B60204BB1
:101A5C001B6803F007033A689A4201D0012332E075
:101A6C007B681B6803F00403002B08D0194B5B68E0
:101A7C0023F4E0627B68DB68164913434B607B6898
:101A8C001B6803F00803002B09D0124B5B6823F48E
:101A9C0060527B681B69DB000E4913434B6000F0FE
:101AAC0021F802460B4B5B681B0903F00F030A4934
:101ABC00CB5C22FA03F3094A1360094B1B681846E6
:101ACC00FFF7A6F9002318461037BD4680BD00BFAE
:101ADC000020024000100240441C000800000020BE
:101AEC000400002080B487B000AF0023FB6000230B
:101AFC00BB6000237B6100237B6000233B611E4B9A
:101B0C005B68FB60FB6803F00C03042B02D0082B12
:101B1C0003D027E0194B3B6127E0FB689B0C03F0DB
:101B2C000F03174AD35C7B60FB6803F48033002BF4
:101B3C0010D0114B5B685B0C03F00103114AD35CB2
:101B4C00BB607B680D4A02FB03F2BB68B2FBF3F38C
:101B5C007B6104E07B680C4A02FB03F37B617B69CD
:101B6C003B6102E0054B3B6100BF3B6918461C37EB
:101B7C00BD4680BC704700BF0010024000127A00C6
:101B8C00541C0008641C000800093D0080B485B09A
:101B9C0000AF78600A4B1B680A4AA2FB03235B0A5E
:101BAC007A6802FB03F3FB6000BFFB685A1EFA6005
:101BBC00002BF9D100BF00BF1437BD4680BC704765
:101BCC0000000020D34D621070B500260C4D0D4C5A
:101BDC00641BA410A64209D100F022F800260A4D7D
:101BEC000A4C641BA410A64205D170BD55F8043BE9
:101BFC0098470136EEE755F8043B98470136F2E773
:101C0C00681C0008681C0008681C00086C1C000894
:101C1C0003460244934200D1704703F8011BF9E7D5
:101C2C00F8B500BFF8BC08BC9E467047F8B500BFBD
:081C3C00F8BC08BC9E4670478D
:101C44000000000000000000010203040607080968
:101C540002030405060708090A0B0C0D0E0F1010E9
:041C64000102000079
:041C6800310100083E
:041C6C000D0100085E
:0C1C700000127A001000000001000000CB
:0400000508000DA53D
:00000001FF
