:020000040800F2
:100000000028002095060008250600082B06000899
:1000100031060008370600083D0600080000000011
:10002000000000000000000000000000430600087F
:100030004F060008000000005B0600086706000885
:10004000DD060008DD060008DD060008DD06000804
:10005000DD060008DD060008DD060008DD060008F4
:10006000DD060008DD060008DD060008DD060008E4
:10007000DD060008DD060008DD060008DD060008D4
:10008000DD060008DD060008DD060008DD060008C4
:10009000DD060008DD060008DD060008DD060008B4
:1000A000DD06000875060008DD060008DD0600080C
:1000B000DD060008DD06000800000000DD0600087F
:1000C000DD0600080000000000000000DD0600085A
:1000D00000000000DD060008DD060008000000004A
:1000E000DD060008DD060008DD060008000000004F
:1000F0000000000000000000000000000000000000
:0C01000000000000000000005FF808F1A3
:10010C0010B5054C237833B9044B13B10448AFF345
:10011C0000800123237010BD0C00002000000000A3
:10012C007819000808B5034B1BB103490348AFF31A
:10013C00008008BD000000001000002078190008A5
:10014C0080B500AF01224FF48071224800F072FD9F
:10015C0001224FF400711F4800F06CFD01224FF496
:10016C0080611C4800F066FD01224FF400611948C3
:10017C0000F060FD01224FF48051164800F05AFD4A
:10018C0001224FF40051134800F054FD01224FF4AA
:10019C008041104800F04EFD012240210E4800F035
:1001AC0049FD012280210C4800F044FD01224FF44E
:1001BC008071094800F03EFD01224FF400710648A1
:1001CC0000F038FD01224FF48061034800F032FD4D
:1001DC0000BF80BD00080140000C014080B500AF9D
:1001EC0000224FF48071224800F024FD00224FF4CD
:1001FC0000711F4800F01EFD00224FF480611C4866
:10020C0000F018FD00224FF40061194800F012FDB7
:10021C0000224FF48051164800F00CFD00224FF4E0
:10022C000051134800F006FD00224FF480411048A5
:10023C0000F000FD002240210E4800F0FBFC0022E3
:10024C0080210C4800F0F6FC00224FF48071094824
:10025C0000F0F0FC00224FF40071064800F0EAFCBC
:10026C0000224FF48061034800F0E4FC00BF80BD25
:10027C0000080140000C014080B500AFFFF7AEFF55
:10028C0040F6B83000F058FAFFF75AFF40F6B83095
:10029C0000F052FA00BF80BD80B500AF00F01AFA32
:1002AC0000F088F800F0C2F8012220213F4800F04D
:1002BC00C1FC012240213D4800F0BCFC0122802100
:1002CC003A4800F0B7FC00220121394800F0B2FC9A
:1002DC0000220221364800F0ADFC002204213448F3
:1002EC0000F0A8FC00220821314800F0A3FC0022F9
:1002FC0010212F4800F09EFC002220212C4800F0F9
:10030C0099FC00224FF48071284800F093FC0022E5
:10031C004FF40071254800F08DFC00224FF48061F1
:10032C00224800F087FC00224FF400611F4800F0C7
:10033C0081FC00224FF480511C4800F07BFC002211
:10034C004FF40051194800F075FC00224FF4804125
:10035C00164800F06FFC00224021154800F06AFCA2
:10036C0000228021124800F065FC00224FF48071BD
:10037C000F4800F05FFC00224FF400710C4800F0B5
:10038C0059FC00224FF48061094800F053FC002214
:10039C004FF40061064800F04DFC00224FF48051F0
:1003AC00034800F047FCFFF767FFFCE7000801403B
:1003BC00000C014080B590B000AF07F11803282263
:1003CC000021184601F0CAFA3B1D00221A605A603F
:1003DC009A60DA601A610223BB610123BB621023AD
:1003EC00FB6200237B6307F11803184600F03AFC0C
:1003FC000346002B01D000F081F80F237B60002313
:10040C00BB600023FB6000233B6100237B613B1D31
:10041C000021184600F0A6FE0346002B01D000F088
:10042C006DF800BF4037BD4680BD000080B586B07A
:10043C0000AF07F1080300221A605A609A60DA6074
:10044C00224B9B69214A43F0040393611F4B9B6928
:10045C0003F004037B607B681C4B9B691B4A43F0D5
:10046C0008039361194B9B6903F008033B603B68DD
:10047C00002247F6E171164800F0DCFB002241F641
:10048C00FF71144800F0D6FB47F6E173BB60012303
:10049C00FB6000233B6102237B6107F108031946D3
:1004AC000B4800F04DFA41F6FF73BB600123FB6073
:1004BC0000233B6102237B6107F1080319460548C1
:1004CC0000F03EFA00BF1837BD4680BD0010024058
:1004DC0000080140000C014080B582B000AF78608C
:1004EC007B681B68044A934201D100F009F900BFF4
:1004FC000837BD4680BD00BF002C014080B400AF62
:10050C0072B600BFFEE7000080B485B000AF154B9B
:10051C009B69144A43F001039361124B9B6903F0EE
:10052C000103BB60BB680F4BDB690E4A43F0805381
:10053C00D3610C4BDB6903F080537B607B680A4B07
:10054C005B68FB60FB6823F0E063FB60FB6843F0D7
:10055C008063FB60044AFB68536000BF1437BD46E0
:10056C0080BC7047001002400000014080B58CB088
:10057C0000AF78600023FB620023BB620022796825
:10058C00192000F0B2F9192000F0CBF91E4B9B6931
:10059C001D4A43F4006393611B4B9B6903F4006396
:1005AC00FB60FB6807F1100207F1140311461846B3
:1005BC0000F034FF00F01EFFF862FB6A134AA2FB46
:1005CC0003239B0C013BBB62114B124A1A60104B6C
:1005DC0040F2E732DA600E4ABB6A53600C4B0022E1
:1005EC001A610B4B00229A60094800F065FF034624
:1005FC00002B04D1064800F0B7FF034600E00123AE
:10060C0018463037BD4680BD0010024083DE1B43C8
:10061C0028000020002C014080B400AFFEE780B41D
:10062C0000AFFEE780B400AFFEE780B400AFFEE79A
:10063C0080B400AFFEE780B400AF00BFBD4680BC05
:10064C00704780B400AF00BFBD4680BC704780B41B
:10065C0000AF00BFBD4680BC704780B400AF00BF88
:10066C00BD4680BC7047000080B500AF024800F06A
:10067C00C7FF00BF80BD00BF2800002080B400AFC2
:10068C0000BFBD4680BC7047FFF7F8FF0B480C4914
:10069C000C4A002302E0D458C4500433C4188C42D2
:1006AC00F9D3094A094C002301E013600432A24239
:1006BC00FBD301F02FF9FFF7EFFD7047000000208E
:1006CC000C000020C41900080C000020740000204D
:1006DC00FEE7000080B500AF084B1B68074A43F0EB
:1006EC0010031360032000F0F5F80F20FFF73EFF16
:1006FC00FFF70AFF0023184680BD00BF0020024010
:10070C0080B400AF054B1B781A46054B1B6813448D
:10071C00034A136000BFBD4680BC70470800002030
:10072C007000002080B400AF024B1B681846BD4619
:10073C0080BC70477000002080B584B000AF78603A
:10074C00FFF7F0FFB8607B68FB60FB68B3F1FF3F1D
:10075C0005D00A4B1B781A46FB681344FB6000BF9C
:10076C00FFF7E0FF0246BB68D31AFA689A42F7D843
:10077C0000BF00BF1037BD4680BD00BF0800002081
:10078C0080B485B000AF78607B6803F00703FB6032
:10079C000C4BDB68BB60BA684FF6FF031340BB60C1
:1007AC00FB681A02BB68134343F0BF6343F4003386
:1007BC00BB60044ABB68D36000BF1437BD4680BC25
:1007CC00704700BF00ED00E080B400AF044BDB6865
:1007DC001B0A03F007031846BD4680BC704700BFD8
:1007EC0000ED00E080B483B000AF0346FB7197F9D5
:1007FC000730002B0BDBFB7903F01F02064997F93E
:10080C0007305B09012000FA02F241F8232000BFF7
:10081C000C37BD4680BC704700E100E080B483B06B
:10082C0000AF03463960FB7197F90730002B0ADBE8
:10083C003B68DAB20C4997F907301201D2B20B447B
:10084C0083F800230AE03B68DAB20849FB7903F02D
:10085C000F03043B1201D2B20B441A7600BF0C37C3
:10086C00BD4680BC704700BF00E100E000ED00E039
:10087C0080B489B000AFF860B9607A60FB6803F0AF
:10088C000703FB61FB69C3F10703042B28BF042397
:10089C00BB61FB690433062B02D9FB69033B00E007
:1008AC0000237B614FF0FF32BB6902FA03F3DA439A
:1008BC00BB681A407B699A404FF0FF317B6901FAA3
:1008CC0003F3D9437B680B40134318462437BD46CA
:1008DC0080BC704780B582B000AF78607868FFF755
:1008EC004FFF00BF0837BD4680BD80B586B000AF56
:1008FC000346B9607A60FB7300237B61FFF764FFEA
:10090C0078617A68B9687869FFF7B2FF024697F99F
:10091C000F3011461846FFF781FF00BF1837BD4650
:10092C0080BD80B582B000AF0346FB7197F90730EC
:10093C001846FFF757FF00BF0837BD4680BD0000C3
:10094C0080B48BB000AF7860396000237B620023E9
:10095C003B6248E101227B6A02FA03F3FB613B68CC
:10096C001B68FA691340BB61BA69FB699A4240F093
:10097C0037813B685B68A34A93425ED0A14A93429D
:10098C0075D8A14A934258D09F4A93426FD89F4A38
:10099C00934252D09D4A934269D89D4A93424CD07F
:1009AC009B4A934263D89B4A934246D0994A9342BE
:1009BC005DD8122B2AD8122B59D801A252F823F049
:1009CC00470A0008210A0008330A0008750A0008C3
:1009DC007B0A00087B0A00087B0A00087B0A0008D7
:1009EC007B0A00087B0A00087B0A00087B0A0008C7
:1009FC007B0A00087B0A00087B0A00087B0A0008B7
:100A0C007B0A0008290A00083D0A0008824A934222
:100A1C0013D02CE03B68DB683B6229E03B68DB6869
:100A2C0004333B6224E03B68DB6808333B621FE025
:100A3C003B68DB680C333B621AE03B689B68002B1D
:100A4C0002D104233B6213E03B689B68012B05D168
:100A5C0008233B627B68FA691A6109E008233B6250
:100A6C007B68FA695A6103E000233B6200E000BF37
:100A7C00BB69FF2B01D87B6801E07B6804337B6189
:100A8C00BB69FF2B02D87B6A9B0002E07B6A083BA8
:100A9C009B003B617B691A680F213B6901FA03F3E8
:100AAC00DB431A40396A3B6901FA03F31A437B6949
:100ABC001A603B685B6803F08053002B00F0908059
:100ACC00564B9B69554A43F001039361534B9B6909
:100ADC0003F00103BB60BB68514A7B6A9B0802337D
:100AEC0052F82330FB607B6A03F003039B000F2258
:100AFC0002FA03F3DB43FA681340FB607B68494A54
:100B0C0093420DD07B68484A934207D07B68474A92
:100B1C00934201D1022304E0032302E0012300E00D
:100B2C0000237A6A02F0030292009340FA6813439E
:100B3C00FB603B497B6A9B080233FA6841F823202F
:100B4C003B685B6803F48013002B06D0384B9A6823
:100B5C003749BB6913438B6006E0354B9A68BB6918
:100B6C00DB43334913408B603B685B6803F4001331
:100B7C00002B06D02E4BDA682D49BB691343CB6092
:100B8C0006E02B4BDA68BB69DB4329491340CB6089
:100B9C003B685B6803F40033002B06D0244B5A6887
:100BAC002349BB6913434B6006E0214B5A68BB6970
:100BBC00DB431F4913404B603B685B6803F4803395
:100BCC00002B06D01A4B1A681949BB6913430B60EA
:100BDC0006E0174B1A68BB69DB43154913400B60E1
:100BEC007B6A01337B623B681A687B6A22FA03F3E7
:100BFC00002B7FF4AFAE00BF00BF2C37BD4680BCCE
:100C0C00704700BF000032100000311000002210AD
:100C1C000000211000001210000011100010024002
:100C2C000000014000080140000C01400010014090
:100C3C000004014080B483B000AF78600B467B8029
:100C4C0013467B707B78002B03D07A887B681A6103
:100C5C0003E07B881A047B681A6100BF0C37BD4621
:100C6C0080BC704780B586B000AF78607B68002B85
:100C7C0001D101236CE27B681B6803F00103002B9C
:100C8C0000F08780924B5B6803F00C03042B0CD0B4
:100C9C008F4B5B6803F00C03082B12D18C4B5B68F9
:100CAC0003F48033B3F5803F0BD1894B1B6803F4FD
:100CBC000033002B6CD07B685B68002B68D1012360
:100CCC0046E27B685B68B3F5803F06D1804B1B68BE
:100CDC007F4A43F4803313602EE07B685B68002B03
:100CEC000CD17B4B1B687A4A23F480331360784B0E
:100CFC001B68774A23F4802313601DE07B685B68D4
:100D0C00B3F5A02F0CD1724B1B68714A43F48023AE
:100D1C0013606F4B1B686E4A43F4803313600BE017
:100D2C006B4B1B686A4A23F480331360684B1B6857
:100D3C00674A23F4802313607B685B68002B13D015
:100D4C00FFF7F0FC386108E0FFF7ECFC02463B696A
:100D5C00D31A642B01D90323FAE15D4B1B6803F40E
:100D6C000033002BF0D014E0FFF7DCFC386108E016
:100D7C00FFF7D8FC02463B69D31A642B01D9032335
:100D8C00E6E1534B1B6803F40033002BF0D100E079
:100D9C0000BF7B681B6803F00203002B63D04C4B35
:100DAC005B6803F00C03002B0BD0494B5B6803F022
:100DBC000C03082B1CD1464B5B6803F48033002BCF
:100DCC0016D1434B1B6803F00203002B05D07B6844
:100DDC001B69012B01D00123BAE13D4B1B6823F0A9
:100DEC00F8027B685B69DB00394913430B603AE01E
:100DFC007B681B69002B20D0364B01221A60FFF751
:100E0C0091FC386108E0FFF78DFC02463B69D31A70
:100E1C00022B01D903239BE12D4B1B6803F002032A
:100E2C00002BF0D02A4B1B6823F0F8027B685B691F
:100E3C00DB00274913430B6015E0264B00221A6098
:100E4C00FFF770FC386108E0FFF76CFC02463B6969
:100E5C00D31A022B01D903237AE11D4B1B6803F033
:100E6C000203002BF0D17B681B6803F00803002BF6
:100E7C003AD07B689B69002B19D0174B01221A6062
:100E8C00FFF750FC386108E0FFF74CFC02463B6969
:100E9C00D31A022B01D903235AE10D4B5B6A03F0E1
:100EAC000203002BF0D0012000F0E8FA1CE00A4B02
:100EBC0000221A60FFF736FC38610FE0FFF732FCB6
:100ECC0002463B69D31A022B08D9032340E100BF29
:100EDC000010024000004242800442429E4B5B6A7A
:100EEC0003F00203002BE9D17B681B6803F00403B9
:100EFC00002B00F0A6800023FB75974BDB6903F0F9
:100F0C008053002B0DD1944BDB69934A43F08053F3
:100F1C00D361914BDB6903F08053BB60BB68012349
:100F2C00FB758E4B1B6803F48073002B18D18B4B15
:100F3C001B688A4A43F480731360FFF7F3FB386134
:100F4C0008E0FFF7EFFB02463B69D31A642B01D98B
:100F5C000323FDE0814B1B6803F48073002BF0D05E
:100F6C007B68DB68012B06D17B4B1B6A7A4A43F00A
:100F7C00010313622DE07B68DB68002B0CD1764BF0
:100F8C001B6A754A23F001031362734B1B6A724A86
:100F9C0023F0040313621CE07B68DB68052B0CD187
:100FAC006D4B1B6A6C4A43F0040313626A4B1B6A59
:100FBC00694A43F0010313620BE0674B1B6A664AF4
:100FCC0023F001031362644B1B6A634A23F004038E
:100FDC0013627B68DB68002B15D0FFF7A3FB38612D
:100FEC000AE0FFF79FFB02463B69D31A41F28832B5
:100FFC00934201D90323ABE0574B1B6A03F0020366
:10100C00002BEED014E0FFF78DFB38610AE0FFF700
:10101C0089FB02463B69D31A41F28832934201D9CB
:10102C00032395E04C4B1B6A03F00203002BEED11B
:10103C00FB7D012B05D1484BDB69474A23F08053DC
:10104C00D3617B68DB69002B00F08180424B5B68CD
:10105C0003F00C03082B61D07B68DB69022B46D1B3
:10106C003F4B00221A60FFF75DFB386108E0FFF789
:10107C0059FB02463B69D31A022B01D9032367E0C3
:10108C00354B1B6803F00073002BF0D17B681B6A97
:10109C00B3F5803F08D1304B5B6823F400327B689A
:1010AC009B682D4913434B602B4B5B6823F47412E4
:1010BC007B68196A7B685B6A0B43274913434B6057
:1010CC00274B01221A60FFF72DFB386108E0FFF770
:1010DC0029FB02463B69D31A022B01D9032337E0C3
:1010EC001D4B1B6803F00073002BF0D02FE01C4B42
:1010FC0000221A60FFF716FB386108E0FFF712FBBD
:10110C0002463B69D31A022B01D9032320E0124B70
:10111C001B6803F00073002BF0D118E07B68DB69CF
:10112C00012B01D1012313E00B4B5B68FB60FB68C7
:10113C0003F480327B681B6A9A4206D1FB6803F485
:10114C0070127B685B6A9A4201D0012300E0002395
:10115C0018461837BD4680BD001002400070004094
:10116C006000424280B584B000AF786039607B6823
:10117C00002B01D10123D0E06A4B1B6803F007035D
:10118C003A689A4210D9674B1B6823F007026549ED
:10119C003B6813430B60634B1B6803F007033A680F
:1011AC009A4201D00123B8E07B681B6803F002036C
:1011BC00002B20D07B681B6803F00403002B05D0A8
:1011CC00594B5B68584A43F4E06353607B681B6877
:1011DC0003F00803002B05D0534B5B68524A43F4D1
:1011EC0060535360504B5B6823F0F0027B689B6844
:1011FC004D4913434B607B681B6803F00103002BC4
:10120C0040D07B685B68012B07D1474B1B6803F40C
:10121C000033002B15D101237FE07B685B68022B28
:10122C0007D1414B1B6803F00073002B09D101233C
:10123C0073E03D4B1B6803F00203002B01D101232B
:10124C006BE0394B5B6823F003027B685B683649C3
:10125C0013434B60FFF766FAF8600AE0FFF762FA97
:10126C000246FB68D31A41F28832934201D9032318
:10127C0053E02D4B5B6803F00C027B685B689B00B2
:10128C009A42EBD1274B1B6803F007033A689A424A
:10129C0010D2244B1B6823F0070222493B681343EE
:1012AC000B60204B1B6803F007033A689A4201D08D
:1012BC00012332E07B681B6803F00403002B08D089
:1012CC00194B5B6823F4E0627B68DB6816491343B7
:1012DC004B607B681B6803F00803002B09D0124B92
:1012EC005B6823F460527B681B69DB000E49134377
:1012FC004B6000F021F802460B4B5B681B0903F0B6
:10130C000F030A49CB5C22FA03F3094A1360094B19
:10131C001B681846FFF72AF9002318461037BD46FC
:10132C0080BD00BF00200240001002409019000850
:10133C00000000200400002080B487B000AF002320
:10134C00FB600023BB6000237B6100237B600023D8
:10135C003B611E4B5B68FB60FB6803F00C03042BCA
:10136C0002D0082B03D027E0194B3B6127E0FB6828
:10137C009B0C03F00F03174AD35C7B60FB6803F4F0
:10138C008033002B10D0114B5B685B0C03F0010316
:10139C00114AD35CBB607B680D4A02FB03F2BB684D
:1013AC00B2FBF3F37B6104E07B680C4A02FB03F3B2
:1013BC007B617B693B6102E0054B3B6100BF3B6994
:1013CC0018461C37BD4680BC704700BF0010024059
:1013DC0000127A00A8190008B819000800093D008D
:1013EC0080B400AF024B1B681846BD4680BC7047EA
:1013FC000000002080B500AFFFF7F2FF0246054B5E
:10140C005B68DB0A03F007030349CB5C22FA03F3A6
:10141C00184680BD00100240A019000880B483B0AB
:10142C0000AF786039607B680F221A60114B5B68E3
:10143C0003F003027B685A600E4B5B6803F0F0020A
:10144C007B689A600B4B5B6803F4E0627B68DA6044
:10145C00084B5B68DB0803F4E0627B681A61064B9F
:10146C001B6803F007023B681A6000BF0C37BD46CF
:10147C0080BC7047001002400020024080B485B050
:10148C0000AF78600A4B1B680A4AA2FB03235B0A75
:10149C007A6802FB03F3FB6000BFFB685A1EFA601C
:1014AC00002BF9D100BF00BF1437BD4680BC70477C
:1014BC0000000020D34D621080B582B000AF786080
:1014CC007B68002B01D1012341E07B6893F83D3010
:1014DC00DBB2002B06D17B68002283F83C207868B5
:1014EC0000F039F87B68022283F83D207B681A688B
:1014FC007B6804331946104600F096F97B6801228C
:10150C0083F846207B68012283F83E207B68012209
:10151C0083F83F207B68012283F840207B680122FE
:10152C0083F841207B68012283F842207B680122EA
:10153C0083F843207B68012283F844207B680122D6
:10154C0083F845207B68012283F83D200023184650
:10155C000837BD4680BD80B483B000AF786000BF53
:10156C000C37BD4680BC704780B485B000AF786046
:10157C007B6893F83D30DBB2012B01D0012335E0C1
:10158C007B68022283F83D207B681B68DA687B68E5
:10159C001B6842F00102DA607B681B68164A9342B2
:1015AC0009D07B681B68B3F1804F04D07B681B6843
:1015BC00124A934211D17B681B689B6803F00703A6
:1015CC00FB60FB68062B10D07B681B681A687B6875
:1015DC001B6842F001021A6007E07B681B681A68FE
:1015EC007B681B6842F001021A600023184614370E
:1015FC00BD4680BC704700BF002C01400004004079
:10160C0080B584B000AF78607B681B68DB68FB60DA
:10161C007B681B681B69BB60BB6803F00203002B73
:10162C0020D0FB6803F00203002B1BD07B681B68E7
:10163C006FF002021A617B6801221A777B681B68C3
:10164C009B6903F00303002B03D0786800F0D1F8FA
:10165C0005E0786800F0C4F8786800F0D3F87B688F
:10166C0000221A77BB6803F00403002B20D0FB6820
:10167C0003F00403002B1BD07B681B686FF0040283
:10168C001A617B6802221A777B681B689B6903F4DA
:10169C004073002B03D0786800F0ABF805E0786855
:1016AC0000F09EF8786800F0ADF87B6800221A779D
:1016BC00BB6803F00803002B20D0FB6803F0080381
:1016CC00002B1BD07B681B686FF008021A617B68CB
:1016DC0004221A777B681B68DB6903F00303002B79
:1016EC0003D0786800F085F805E0786800F078F8A9
:1016FC00786800F087F87B6800221A77BB6803F0E3
:10170C001003002B20D0FB6803F01003002B1BD020
:10171C007B681B686FF010021A617B6808221A77CD
:10172C007B681B68DB6903F44073002B03D078687B
:10173C0000F05FF805E0786800F052F8786800F087
:10174C0061F87B6800221A77BB6803F00103002B59
:10175C000CD0FB6803F00103002B07D07B681B68DF
:10176C006FF001021A617868FEF7B6FEBB6803F0F1
:10177C008003002B0CD0FB6803F08003002B07D0F8
:10178C007B681B686FF080021A61786800F0B9F80A
:10179C00BB6803F04003002B0CD0FB6803F0400344
:1017AC00002B07D07B681B686FF040021A617868C9
:1017BC0000F031F8BB6803F02003002B0CD0FB6861
:1017CC0003F02003002B07D07B681B686FF020020E
:1017DC001A61786800F08CF800BF1037BD4680BDE8
:1017EC0080B483B000AF786000BF0C37BD4680BCBE
:1017FC00704780B483B000AF786000BF0C37BD4633
:10180C0080BC704780B483B000AF786000BF0C37E9
:10181C00BD4680BC704780B483B000AF786000BF19
:10182C000C37BD4680BC704780B485B000AF786083
:10183C0039607B681B68FB607B682B4A934207D03E
:10184C007B68B3F1804F03D07B68284A934208D160
:10185C00FB6823F07003FB603B685B68FA6813431A
:10186C00FB607B68204A934207D07B68B3F1804FC2
:10187C0003D07B681D4A934208D1FB6823F4407364
:10188C00FB603B68DB68FA681343FB60FB6823F082
:10189C0080023B685B691343FB607B68FA681A60E3
:1018AC003B689A687B68DA623B681A687B689A6264
:1018BC007B680D4A934203D13B681A697B681A63B3
:1018CC007B6801225A617B681B6903F00103002BC2
:1018DC0005D07B681B6923F001027B681A6100BF8D
:1018EC001437BD4680BC7047002C014000040040FA
:1018FC0080B483B000AF786000BF0C37BD4680BCAD
:10190C00704780B483B000AF786000BF0C37BD4621
:10191C0080BC704770B500260C4D0D4C641BA41098
:10192C00A64209D100F022F800260A4D0A4C641B8D
:10193C00A410A64205D170BD55F8043B984701365A
:10194C00EEE755F8043B98470136F2E7BC1900085E
:10195C00BC190008BC190008C01900080346024451
:10196C00934200D1704703F8011BF9E7F8B500BFAB
:10197C00F8BC08BC9E467047F8B500BFF8BC08BC64
:04198C009E467047BC
:10199000000000000000000001020304060708091F
:1019A0000000000001020304020304050607080901
:0C19B0000A0B0C0D0E0F101001020000BD
:0419BC0031010008ED
:0419C0000D0100080D
:0C19C40000127A0010000000010000007A
:040000050800069554
:00000001FF
