:020000040800F2
:1000000000280020A50F0008210F0008270F000876
:100010002D0F0008330F0008390F00080000000002
:100020000000000000000000000000003F0F00087A
:100030004B0F000800000000570F0008630F000876
:10004000ED0F0008ED0F0008ED0F0008ED0F0008A0
:10005000ED0F0008ED0F0008ED0F0008ED0F000890
:10006000ED0F0008ED0F0008ED0F0008ED0F000880
:10007000ED0F0008ED0F0008ED0F0008ED0F000870
:10008000ED0F0008ED0F0008ED0F0008ED0F000860
:10009000ED0F0008ED0F0008ED0F0008ED0F000850
:1000A000ED0F0008710F0008ED0F0008ED0F0008BC
:1000B000850F0008ED0F000800000000ED0F00089C
:1000C000ED0F00080000000000000000ED0F000828
:1000D00000000000ED0F0008ED0F00080000000018
:1000E000ED0F0008ED0F0008ED0F00080000000004
:1000F0000000000000000000000000000000000000
:0C01000000000000000000005FF808F1A3
:10010C0010B5054C237833B9044B13B10448AFF345
:10011C0000800123237010BD0C00002000000000A3
:10012C007C26000808B5034B1BB103490348AFF309
:10013C00008008BD00000000100000207C26000894
:10014C0080B582B000AF78607B68092B00F2C98162
:10015C0001A252F823F000BF8D010008E301000852
:10016C00390200088F020008E50200083B03000872
:10017C0091030008E70300083D04000899040008F7
:10018C0000224FF48071C04801F0CAF900224FF4EC
:10019C000071BD4801F0C4F900224FF48061BA48E7
:1001AC0001F0BEF900224FF40061B74801F0B8F934
:1001BC0000224FF48051B44801F0B2F900224FF400
:1001CC000051B14801F0ACF901224FF48041AE4826
:1001DC0001F0A6F985E101224FF48071AA4801F0E3
:1001EC009FF900224FF40071A74801F099F9002201
:1001FC004FF48061A44801F093F901224FF400619F
:10020C00A14801F08DF901224FF480519E4801F074
:10021C0087F901224FF400519B4801F081F901222A
:10022C004FF48041984801F07BF95AE100224FF4D9
:10023C008071954801F074F900224FF400719248D6
:10024C0001F06EF901224FF480618F4801F068F9DA
:10025C0000224FF400618C4801F062F900224FF447
:10026C008051894801F05CF901224FF40051864815
:10027C0001F056F900224FF48041834801F050F907
:10028C002FE100224FF480717F4801F049F90022E0
:10029C004FF400717C4801F043F900224FF4806167
:1002AC00794801F03DF900224FF40061764801F0E5
:1002BC0037F901224FF48051734801F031F90122D2
:1002CC004FF40051704801F02BF900224FF480419B
:1002DC006D4801F025F904E101224FF480716A4860
:1002EC0001F01EF900224FF40071674801F018F973
:1002FC0000224FF48061644801F012F901224FF49E
:10030C000061614801F00CF901224FF480515E4804
:10031C0001F006F900224FF400515B4801F000F99E
:10032C0000224FF48041584801F0FAF8D9E000223D
:10033C004FF48071544801F0F3F801224FF400712E
:10034C00514801F0EDF800224FF480614E4801F065
:10035C00E7F800224FF400614B4801F0E1F801226C
:10036C004FF48051484801F0DBF800224FF4005163
:10037C00454801F0D5F800224FF48041424801F085
:10038C00CFF8AEE000224FF480713F4801F0C8F87E
:10039C0001224FF400713C4801F0C2F800224FF4E6
:1003AC008061394801F0BCF800224FF400613648F6
:1003BC0001F0B6F800224FF48051334801F0B0F848
:1003CC0000224FF40051304801F0AAF800224FF4FB
:1003DC0080412D4801F0A4F883E000224FF4807195
:1003EC00294801F09DF800224FF40071264801F0D5
:1003FC0097F800224FF48061234801F091F8012214
:10040C004FF40061204801F08BF801224FF4805129
:10041C001D4801F085F801224FF400511A4801F0F3
:10042C007FF801224FF48041174801F079F858E029
:10043C0000224FF48071144801F072F800224FF43E
:10044C000071114801F06CF800224FF480610E48E5
:10045C0001F066F800224FF400610B4801F060F8DF
:10046C0000224FF48051084801F05AF800224FF452
:10047C000051054801F054F800224FF48041024825
:10048C0001F04EF82DE000BF0008014000224FF4AF
:10049C008071164801F044F800224FF400711348A3
:1004AC0001F03EF800224FF48061104801F038F85A
:1004BC0000224FF400610D4801F032F801224FF494
:1004CC0080510A4801F02CF800224FF400510748E3
:1004DC0001F026F800224FF48041044801F020F886
:1004EC0000BF00BF0837BD4680BD00BF00080140FB
:1004FC0080B582B000AF78607B68092B00F2B281C6
:10050C0001A252F823F000BF3D0500088F0500083A
:10051C00E10500083306000885060008D706000828
:10052C00290700087B070008CD0700081F080008F2
:10053C0000224021CD4800F0F3FF00228021CB485F
:10054C0000F0EEFF00224FF48071C84800F0E8FF85
:10055C0000224FF40071C54800F0E2FF00224FF476
:10056C008061C24800F0DCFF00224FF40061BF48FC
:10057C0000F0D6FF01224FF48051BC4800F0D0FFB0
:10058C0070E101224021B94800F0CAFF002280210D
:10059C00B64800F0C5FF00224FF48071B34800F05C
:1005AC00BFFF01224FF40071B04800F0B9FF0122E7
:1005BC004FF48061AD4800F0B3FF01224FF40061AD
:1005CC00AA4800F0ADFF01224FF48051A74800F07B
:1005DC00A7FF47E100224021A44800F0A1FF002220
:1005EC008021A24800F09CFF01224FF480719F48AB
:1005FC0000F096FF00224FF400719C4800F090FF31
:10060C0000224FF48061994800F08AFF01224FF4D8
:10061C000061964800F084FF00224FF4805193480B
:10062C0000F07EFF1EE100224021904800F078FF90
:10063C00002280218D4800F073FF00224FF480715E
:10064C008A4800F06DFF00224FF40071874800F0DB
:10065C0067FF01224FF48061844800F061FF0122A2
:10066C004FF40061814800F05BFF00224FF4805191
:10067C007E4800F055FFF5E0012240217B4800F058
:10068C004FFF00228021794800F04AFF00224FF4EE
:10069C008071764800F044FF01224FF400717348DA
:1006AC0000F03EFF01224FF48061704800F038FFEB
:1006BC0000224FF400616D4800F032FF00224FF42D
:1006CC0080516A4800F02CFFCCE0002240216748A2
:1006DC0000F026FF01228021644800F021FF002257
:1006EC004FF48071614800F01BFF00224FF4007141
:1006FC005E4800F015FF01224FF480615B4800F06A
:10070C000FFF00224FF40061584800F009FF00224F
:10071C004FF48051554800F003FFA3E00022402124
:10072C00524800F0FDFE01228021504800F0F8FEF6
:10073C0000224FF480714D4800F0F2FE00224FF47D
:10074C0000714A4800F0ECFE00224FF480614748EB
:10075C0000F0E6FE00224FF40061444800F0E0FE99
:10076C0000224FF48051414800F0DAFE7AE000227A
:10077C0040213E4800F0D4FE002280213B4800F08E
:10078C00CFFE00224FF48071384800F0C9FE0122E0
:10079C004FF40071354800F0C3FE01224FF4806124
:1007AC00324800F0BDFE01224FF400612F4800F0EA
:1007BC00B7FE01224FF480512C4800F0B1FE51E0FD
:1007CC0000224021294800F0ABFE0022802127485E
:1007DC0000F0A6FE00224FF48071244800F0A0FE29
:1007EC0000224FF40071214800F09AFE00224FF4D1
:1007FC0080611E4800F094FE00224FF400611B48FB
:10080C0000F08EFE00224FF48051184800F088FE54
:10081C0028E000224021154800F082FE00228021B1
:10082C00124800F07DFE00224FF480710F4800F05A
:10083C0077FE00224FF400710C4800F071FE01228B
:10084C004FF48061094800F06BFE00224FF4006108
:10085C00064800F065FE00224FF48051034800F07A
:10086C005FFE00BF00BF0837BD4680BD000C0140D5
:10087C0080B582B000AF05237B6003233B60012170
:10088C00344800F065FE2021324800F061FE7868A3
:10089C00FFF756FC3868FFF72BFE4FF47A7000F028
:1008AC00C1FB7B68013B7B603B68013B3B6078682C
:1008BC00FFF746FC3868FFF71BFE4FF47A7000F028
:1008CC00B1FB7B68013B7B603B68013B3B6078681C
:1008DC00FFF736FC3868FFF70BFE4FF47A7000F028
:1008EC00A1FB7B68013B7B6002233B602021194804
:1008FC0000F02EFE1021174800F02AFE7868FFF752
:10090C001FFC3868FFF7F4FD4FF47A7000F08AFB97
:10091C007B68013B7B603B68013B3B607868FFF781
:10092C000FFC3868FFF7E4FD4FF47A7000F07AFBA7
:10093C007B68013B7B603B68013B3B6010210548B9
:10094C0000F006FE0121034800F002FE00BF08374C
:10095C00BD4680BD000C014080B582B000AF0323C2
:10096C007B6005233B6004211F4800F0F1FD08214A
:10097C001D4800F0EDFD7868FFF7E2FB3868FFF7E3
:10098C00B7FD4FF47A7000F04DFB7B68013B7B6048
:10099C003B68013B3B607868FFF7D2FB3868FFF798
:1009AC00A7FD4FF47A7000F03DFB7B68013B7B6048
:1009BC003B68013B3B607868FFF7C2FB3868FFF788
:1009CC0097FD4FF47A7000F02DFB7B68013B7B6048
:1009DC003B68013B3B600421034800F0B9FD00BFBC
:1009EC000837BD4680BD00BF000C014080B582B009
:1009FC0000AF02237B6002233B600221174800F00A
:100A0C00A7FD7868FFF79CFB3868FFF771FD4FF482
:100A1C007A7000F007FB7B68013B7B603B68013B15
:100A2C003B607868FFF78CFB3868FFF761FD4FF48B
:100A3C007A7000F0F7FA7B68013B7B603B68013B06
:100A4C003B600221054800F083FD0821034800F0BB
:100A5C007FFD00BF0837BD4680BD00BF000C0140C4
:100A6C0080B500AFFFF704FFFFF776FFFFF7BEFF7F
:100A7C0000BF80BD80B400AF094B1B68002B0BDDA1
:100A8C00074B1B68013B064A1360054B1B68002B88
:100A9C0002DC044B01221A6000BFBD4680BC7047CB
:100AAC00280000202C00002080B582B000AF00F0A0
:100ABC0099FA00F095F800F01BF900F0CDF801223E
:100ACC002021444800F02CFD01224021414800F037
:100ADC0027FD012280213F4800F022FD0022012148
:100AEC003D4800F01DFD002202213B4800F018FD9E
:100AFC0000220421384800F013FD0022082136485A
:100B0C0000F00EFD00221021334800F009FD0022F8
:100B1C002021314800F004FD01224FF480712D4852
:100B2C0000F0FEFC01224FF400712A4800F0F8FCA2
:100B3C0001224FF48061274800F0F2FC01224FF4AF
:100B4C000061244800F0ECFC01224FF48051214854
:100B5C0000F0E6FC01224FF400511E4800F0E0FCCE
:100B6C0001224FF480411B4800F0DAFC01224021A5
:100B7C00194800F0D5FC01228021174800F0D0FC68
:100B8C0001224FF48071144800F0CAFC01224FF48A
:100B9C000071114800F0C4FC01224FF480610E4832
:100BAC0000F0BEFC01224FF400610B4800F0B8FCD1
:100BBC0001224FF48051084800F0B2FC074801F0C4
:100BCC005BF9FFF74DFF7B68013B7B603B68013BAA
:100BDC003B60F6E700080140000C014030000020AB
:100BEC0080B590B000AF07F11803282200211846F9
:100BFC0001F036FD3B1D00221A605A609A60DA60E3
:100C0C001A610223BB610123BB621023FB62002328
:100C1C007B6307F11803184600F0B4FC0346002B65
:100C2C0001D000F0C5F80F237B600023BB600023CC
:100C3C00FB6000233B6100237B613B1D00211846B8
:100C4C0000F020FF0346002B01D000F0B1F800BFEC
:100C5C004037BD4680BD000080B586B000AF07F1BF
:100C6C00080300221A605A609A60DA603B46002240
:100C7C001A605A601D4B4FF080421A601B4B41F6B4
:100C8C003F725A60194B00229A60184B0922DA60A5
:100C9C00164B00221A61154B00229A61134801F081
:100CAC009BF80346002B01D000F082F84FF48053E0
:100CBC00BB6007F1080319460C4801F05DFA0346C6
:100CCC00002B01D000F074F800233B6000237B6004
:100CDC003B461946054801F035FC0346002B01D074
:100CEC0000F066F800BF1837BD4680BD300000200C
:100CFC0080B586B000AF07F1080300221A605A6075
:100D0C009A60DA60224B9B69214A43F00403936199
:100D1C001F4B9B6903F004037B607B681C4B9B6936
:100D2C001B4A43F008039361194B9B6903F00803BA
:100D3C003B603B68002247F6E171164800F0F0FB7F
:100D4C00002241F6FF71144800F0EAFB47F6E1730C
:100D5C00BB600123FB6000233B6102237B6107F135
:100D6C00080319460B4800F061FA41F6FF73BB60AB
:100D7C000123FB6000233B6102237B6107F1080325
:100D8C001946054800F052FA00BF1837BD4680BD21
:100D9C000010024000080140000C014080B582B0F8
:100DAC0000AF7860FFF766FE00BF0837BD4680BD18
:100DBC0080B400AF72B600BFFEE7000080B485B00F
:100DCC0000AF154B9B69144A43F001039361124B1E
:100DDC009B6903F00103BB60BB680F4BDB690E4AD8
:100DEC0043F08053D3610C4BDB6903F080537B6081
:100DFC007B680A4B5B68FB60FB6823F0E063FB607D
:100E0C00FB6843F08063FB60044AFB68536000BFDF
:100E1C001437BD4680BC70470010024000000140F2
:100E2C0080B584B000AF78607B681B68B3F1804FED
:100E3C0013D10C4BDB690B4A43F00103D361094B13
:100E4C00DB6903F00103FB60FB68002200211C201E
:100E5C0000F0C1F91C2000F0DAF900BF1037BD46D4
:100E6C0080BD00BF0010024080B58CB000AF786030
:100E7C000023FB620023BB6200227968192000F07A
:100E8C00AAF9192000F0C3F91E4B9B691D4A43F4C3
:100E9C00006393611B4B9B6903F40063FB60FB686D
:100EAC0007F1100207F114031146184600F046FF33
:100EBC0000F030FFF862FB6A134AA2FB03239B0C81
:100ECC00013BBB62114B124A1A60104B40F2E732E5
:100EDC00DA600E4ABB6A53600C4B00221A610B4B52
:100EEC0000229A60094800F077FF0346002B04D1DA
:100EFC00064801F005F8034600E001231846303798
:100F0C00BD4680BD0010024083DE1B4378000020EC
:100F1C00002C014080B400AFFEE780B400AFFEE7C8
:100F2C0080B400AFFEE780B400AFFEE780B400AF42
:100F3C00FEE780B400AF00BFBD4680BC704780B4F4
:100F4C0000AF00BFBD4680BC704780B400AF00BF8F
:100F5C00BD4680BC704780B400AF00BFBD4680BCAE
:100F6C007047000080B500AF024801F015F800BFD3
:100F7C0080BD00BF7800002080B500AF024801F0B2
:100F8C000BF800BF80BD00BF3000002080B400AF64
:100F9C0000BFBD4680BC7047FFF7F8FF0B480C49FB
:100FAC000C4A002302E0D458C4500433C4188C42B9
:100FBC00F9D3094A094C002301E013600432A24220
:100FCC00FBD301F029FBFFF76FFD704700000020F9
:100FDC000C000020C82600080C000020C4000020D3
:100FEC00FEE7000080B500AF084B1B68074A43F0D2
:100FFC0010031360032000F0E3F80F20FFF734FF19
:10100C00FFF7DCFE0023184680BD00BF0020024025
:10101C0080B400AF024B1B681846BD4680BC7047BD
:10102C00C000002080B584B000AF7860FFF7F0FFFF
:10103C00B8607B68FB60FB68B3F1FF3F05D00A4BDF
:10104C001B781A46FB681344FB6000BFFFF7E0FFF8
:10105C000246BB68D31AFA689A42F7D800BF00BFA1
:10106C001037BD4680BD00BF0800002080B485B09D
:10107C0000AF78607B6803F00703FB600C4BDB6808
:10108C00BB60BA684FF6FF031340BB60FB681A02E3
:10109C00BB68134343F0BF6343F40033BB60044AA3
:1010AC00BB68D36000BF1437BD4680BC704700BF1F
:1010BC0000ED00E080B400AF044BDB681B0A03F0CA
:1010CC0007031846BD4680BC704700BF00ED00E02A
:1010DC0080B483B000AF0346FB7197F90730002B47
:1010EC000BDBFB7903F01F02064997F907305B090C
:1010FC00012000FA02F241F8232000BF0C37BD4654
:10110C0080BC704700E100E080B483B000AF0346C0
:10111C003960FB7197F90730002B0ADB3B68DAB2B8
:10112C000C4997F907301201D2B20B4483F8002313
:10113C000AE03B68DAB20849FB7903F00F03043B81
:10114C001201D2B20B441A7600BF0C37BD4680BCDC
:10115C00704700BF00E100E000ED00E080B489B012
:10116C0000AFF860B9607A60FB6803F00703FB61BD
:10117C00FB69C3F10703042B28BF0423BB61FB6984
:10118C000433062B02D9FB69033B00E000237B618F
:10119C004FF0FF32BB6902FA03F3DA43BB681A4023
:1011AC007B699A404FF0FF317B6901FA03F3D94315
:1011BC007B680B40134318462437BD4680BC7047F0
:1011CC0080B582B000AF78607868FFF74FFF00BF42
:1011DC000837BD4680BD80B586B000AF0346B96008
:1011EC007A60FB7300237B61FFF764FF78617A6898
:1011FC00B9687869FFF7B2FF024697F90F301146CC
:10120C001846FFF781FF00BF1837BD4680BD80B57B
:10121C0082B000AF0346FB7197F907301846FFF711
:10122C0057FF00BF0837BD4680BD000080B48BB0AF
:10123C0000AF7860396000237B6200233B6248E199
:10124C0001227B6A02FA03F3FB613B681B68FA69B3
:10125C001340BB61BA69FB699A4240F037813B6825
:10126C005B68A34A93425ED0A14A934275D8A14AC7
:10127C00934258D09F4A93426FD89F4A934252D080
:10128C009D4A934269D89D4A93424CD09B4A9342C3
:10129C0063D89B4A934246D0994A93425DD8122B0D
:1012AC002AD8122B59D801A252F823F03313000874
:1012BC000D1300081F1300086113000867130008C2
:1012CC00671300086713000867130008671300080A
:1012DC0067130008671300086713000867130008FA
:1012EC0067130008671300086713000867130008EA
:1012FC001513000829130008824A934213D02CE0DE
:10130C003B68DB683B6229E03B68DB6804333B628B
:10131C0024E03B68DB6808333B621FE03B68DB681A
:10132C000C333B621AE03B689B68002B02D1042310
:10133C003B6213E03B689B68012B05D108233B62A1
:10134C007B68FA691A6109E008233B627B68FA69D9
:10135C005A6103E000233B6200E000BFBB69FF2B36
:10136C0001D87B6801E07B6804337B61BB69FF2B90
:10137C0002D87B6A9B0002E07B6A083B9B003B61C6
:10138C007B691A680F213B6901FA03F3DB431A40AE
:10139C00396A3B6901FA03F31A437B691A603B68AB
:1013AC005B6803F08053002B00F09080564B9B69D8
:1013BC00554A43F001039361534B9B6903F00103BE
:1013CC00BB60BB68514A7B6A9B08023352F82330DE
:1013DC00FB607B6A03F003039B000F2202FA03F30A
:1013EC00DB43FA681340FB607B68494A93420DD09B
:1013FC007B68484A934207D07B68474A934201D1A5
:10140C00022304E0032302E0012300E000237A6AB4
:10141C0002F0030292009340FA681343FB603B49CD
:10142C007B6A9B080233FA6841F823203B685B68AF
:10143C0003F48013002B06D0384B9A683749BB69EC
:10144C0013438B6006E0354B9A68BB69DB43334929
:10145C0013408B603B685B6803F40013002B06D0D1
:10146C002E4BDA682D49BB691343CB6006E02B4B3E
:10147C00DA68BB69DB4329491340CB603B685B6886
:10148C0003F40033002B06D0244B5A682349BB6964
:10149C0013434B6006E0214B5A68BB69DB431F4981
:1014AC0013404B603B685B6803F48033002B06D021
:1014BC001A4B1A681949BB6913430B6006E0174BAA
:1014CC001A68BB69DB43154913400B607B6A013317
:1014DC007B623B681A687B6A22FA03F3002B7FF469
:1014EC00AFAE00BF00BF2C37BD4680BC704700BFFD
:1014FC0000003210000031100000221000002110FA
:10150C0000001210000011100010024000000140F9
:10151C0000080140000C0140001001400004014093
:10152C0080B483B000AF78600B467B8013467B7031
:10153C007B78002B03D07A887B681A6103E07B8868
:10154C001A047B681A6100BF0C37BD4680BC70471B
:10155C0080B485B000AF78600B467B807B68DB681D
:10156C00FB607A88FB6813401A04FB68D9437B88BC
:10157C000B401A437B681A6100BF1437BD4680BC10
:10158C007047000080B586B000AF78607B68002B98
:10159C0001D101236CE27B681B6803F00103002B73
:1015AC0000F08780924B5B6803F00C03042B0CD08B
:1015BC008F4B5B6803F00C03082B12D18C4B5B68D0
:1015CC0003F48033B3F5803F0BD1894B1B6803F4D4
:1015DC000033002B6CD07B685B68002B68D1012337
:1015EC0046E27B685B68B3F5803F06D1804B1B6895
:1015FC007F4A43F4803313602EE07B685B68002BDA
:10160C000CD17B4B1B687A4A23F480331360784BE4
:10161C001B68774A23F4802313601DE07B685B68AA
:10162C00B3F5A02F0CD1724B1B68714A43F4802385
:10163C0013606F4B1B686E4A43F4803313600BE0EE
:10164C006B4B1B686A4A23F480331360684B1B682E
:10165C00674A23F4802313607B685B68002B13D0EC
:10166C00FFF7D6FC386108E0FFF7D2FC02463B6975
:10167C00D31A642B01D90323FAE15D4B1B6803F4E5
:10168C000033002BF0D014E0FFF7C2FC386108E007
:10169C00FFF7BEFC02463B69D31A642B01D9032326
:1016AC00E6E1534B1B6803F40033002BF0D100E050
:1016BC0000BF7B681B6803F00203002B63D04C4B0C
:1016CC005B6803F00C03002B0BD0494B5B6803F0F9
:1016DC000C03082B1CD1464B5B6803F48033002BA6
:1016EC0016D1434B1B6803F00203002B05D07B681B
:1016FC001B69012B01D00123BAE13D4B1B6823F080
:10170C00F8027B685B69DB00394913430B603AE0F4
:10171C007B681B69002B20D0364B01221A60FFF727
:10172C0077FC386108E0FFF773FC02463B69D31A7B
:10173C00022B01D903239BE12D4B1B6803F0020301
:10174C00002BF0D02A4B1B6823F0F8027B685B69F6
:10175C00DB00274913430B6015E0264B00221A606F
:10176C00FFF756FC386108E0FFF752FC02463B6974
:10177C00D31A022B01D903237AE11D4B1B6803F00A
:10178C000203002BF0D17B681B6803F00803002BCD
:10179C003AD07B689B69002B19D0174B01221A6039
:1017AC00FFF736FC386108E0FFF732FC02463B6974
:1017BC00D31A022B01D903235AE10D4B5B6A03F0B8
:1017CC000203002BF0D0012000F0E8FA1CE00A4BD9
:1017DC0000221A60FFF71CFC38610FE0FFF718FCC1
:1017EC0002463B69D31A022B08D9032340E100BF00
:1017FC000010024000004242800442429E4B5B6A51
:10180C0003F00203002BE9D17B681B6803F004038F
:10181C00002B00F0A6800023FB75974BDB6903F0CF
:10182C008053002B0DD1944BDB69934A43F08053CA
:10183C00D361914BDB6903F08053BB60BB68012320
:10184C00FB758E4B1B6803F48073002B18D18B4BEC
:10185C001B688A4A43F480731360FFF7D9FB386125
:10186C0008E0FFF7D5FB02463B69D31A642B01D97C
:10187C000323FDE0814B1B6803F48073002BF0D035
:10188C007B68DB68012B06D17B4B1B6A7A4A43F0E1
:10189C00010313622DE07B68DB68002B0CD1764BC7
:1018AC001B6A754A23F001031362734B1B6A724A5D
:1018BC0023F0040313621CE07B68DB68052B0CD15E
:1018CC006D4B1B6A6C4A43F0040313626A4B1B6A30
:1018DC00694A43F0010313620BE0674B1B6A664ACB
:1018EC0023F001031362644B1B6A634A23F0040365
:1018FC0013627B68DB68002B15D0FFF789FB38611E
:10190C000AE0FFF785FB02463B69D31A41F28832A5
:10191C00934201D90323ABE0574B1B6A03F002033C
:10192C00002BEED014E0FFF773FB38610AE0FFF7F1
:10193C006FFB02463B69D31A41F28832934201D9BC
:10194C00032395E04C4B1B6A03F00203002BEED1F2
:10195C00FB7D012B05D1484BDB69474A23F08053B3
:10196C00D3617B68DB69002B00F08180424B5B68A4
:10197C0003F00C03082B61D07B68DB69022B46D18A
:10198C003F4B00221A60FFF743FB386108E0FFF77A
:10199C003FFB02463B69D31A022B01D9032367E0B4
:1019AC00354B1B6803F00073002BF0D17B681B6A6E
:1019BC00B3F5803F08D1304B5B6823F400327B6871
:1019CC009B682D4913434B602B4B5B6823F47412BB
:1019DC007B68196A7B685B6A0B43274913434B602E
:1019EC00274B01221A60FFF713FB386108E0FFF761
:1019FC000FFB02463B69D31A022B01D9032337E0B4
:101A0C001D4B1B6803F00073002BF0D02FE01C4B18
:101A1C0000221A60FFF7FCFA386108E0FFF7F8FAC9
:101A2C0002463B69D31A022B01D9032320E0124B47
:101A3C001B6803F00073002BF0D118E07B68DB69A6
:101A4C00012B01D1012313E00B4B5B68FB60FB689E
:101A5C0003F480327B681B6A9A4206D1FB6803F45C
:101A6C0070127B685B6A9A4201D0012300E000236C
:101A7C0018461837BD4680BD00100240007000406B
:101A8C006000424280B584B000AF786039607B68FA
:101A9C00002B01D10123D0E06A4B1B6803F0070334
:101AAC003A689A4210D9674B1B6823F007026549C4
:101ABC003B6813430B60634B1B6803F007033A68E6
:101ACC009A4201D00123B8E07B681B6803F0020343
:101ADC00002B20D07B681B6803F00403002B05D07F
:101AEC00594B5B68584A43F4E06353607B681B684E
:101AFC0003F00803002B05D0534B5B68524A43F4A8
:101B0C0060535360504B5B6823F0F0027B689B681A
:101B1C004D4913434B607B681B6803F00103002B9A
:101B2C0040D07B685B68012B07D1474B1B6803F4E3
:101B3C000033002B15D101237FE07B685B68022BFF
:101B4C0007D1414B1B6803F00073002B09D1012313
:101B5C0073E03D4B1B6803F00203002B01D1012302
:101B6C006BE0394B5B6823F003027B685B6836499A
:101B7C0013434B60FFF74CFAF8600AE0FFF748FAA2
:101B8C000246FB68D31A41F28832934201D90323EF
:101B9C0053E02D4B5B6803F00C027B685B689B0089
:101BAC009A42EBD1274B1B6803F007033A689A4221
:101BBC0010D2244B1B6823F0070222493B681343C5
:101BCC000B60204B1B6803F007033A689A4201D064
:101BDC00012332E07B681B6803F00403002B08D060
:101BEC00194B5B6823F4E0627B68DB68164913438E
:101BFC004B607B681B6803F00803002B09D0124B69
:101C0C005B6823F460527B681B69DB000E4913434D
:101C1C004B6000F021F802460B4B5B681B0903F08C
:101C2C000F030A49CB5C22FA03F3094A1360094BF0
:101C3C001B681846FFF718F9002318461037BD46E5
:101C4C0080BD00BF00200240001002409426000816
:101C5C00000000200400002080B487B000AF0023F7
:101C6C00FB600023BB6000237B6100237B600023AF
:101C7C003B611E4B5B68FB60FB6803F00C03042BA1
:101C8C0002D0082B03D027E0194B3B6127E0FB68FF
:101C9C009B0C03F00F03174AD35C7B60FB6803F4C7
:101CAC008033002B10D0114B5B685B0C03F00103ED
:101CBC00114AD35CBB607B680D4A02FB03F2BB6824
:101CCC00B2FBF3F37B6104E07B680C4A02FB03F389
:101CDC007B617B693B6102E0054B3B6100BF3B696B
:101CEC0018461C37BD4680BC704700BF0010024030
:101CFC0000127A00AC260008BC26000800093D0042
:101D0C0080B400AF024B1B681846BD4680BC7047C0
:101D1C000000002080B500AFFFF7F2FF0246054B34
:101D2C005B68DB0A03F007030349CB5C22FA03F37D
:101D3C00184680BD00100240A426000880B483B071
:101D4C0000AF786039607B680F221A60114B5B68BA
:101D5C0003F003027B685A600E4B5B6803F0F002E1
:101D6C007B689A600B4B5B6803F4E0627B68DA601B
:101D7C00084B5B68DB0803F4E0627B681A61064B76
:101D8C001B6803F007023B681A6000BF0C37BD46A6
:101D9C0080BC7047001002400020024080B485B027
:101DAC0000AF78600A4B1B680A4AA2FB03235B0A4C
:101DBC007A6802FB03F3FB6000BFFB685A1EFA60F3
:101DCC00002BF9D100BF00BF1437BD4680BC704753
:101DDC0000000020D34D621080B582B000AF786057
:101DEC007B68002B01D1012341E07B6893F83D30E7
:101DFC00DBB2002B06D17B68002283F83C2078688C
:101E0C00FFF70EF87B68022283F83D207B681A6886
:101E1C007B6804331946104600F09AFA7B6801225D
:101E2C0083F846207B68012283F83E207B680122E0
:101E3C0083F83F207B68012283F840207B680122D5
:101E4C0083F841207B68012283F842207B680122C1
:101E5C0083F843207B68012283F844207B680122AD
:101E6C0083F845207B68012283F83D200023184627
:101E7C000837BD4680BD000080B485B000AF7860E7
:101E8C007B6893F83D30DBB2012B01D001232DE0B0
:101E9C007B68022283F83D207B681B68164A9342BC
:101EAC0009D07B681B68B3F1804F04D07B681B683A
:101EBC00124A934211D17B681B689B6803F007039D
:101ECC00FB60FB68062B10D07B681B681A687B686C
:101EDC001B6842F001021A6007E07B681B681A68F5
:101EEC007B681B6842F001021A6000231846143705
:101EFC00BD4680BC704700BF002C01400004004070
:101F0C0080B485B000AF78607B6893F83D30DBB26D
:101F1C00012B01D0012335E07B68022283F83D20A0
:101F2C007B681B68DA687B681B6842F00102DA6028
:101F3C007B681B68164A934209D07B681B68B3F117
:101F4C00804F04D07B681B68124A934211D17B6886
:101F5C001B689B6803F00703FB60FB68062B10D023
:101F6C007B681B681A687B681B6842F001021A6068
:101F7C0007E07B681B681A687B681B6842F00102EB
:101F8C001A60002318461437BD4680BC704700BF4A
:101F9C00002C01400004004080B584B000AF786094
:101FAC007B681B68DB68FB607B681B681B69BB601C
:101FBC00BB6803F00203002B20D0FB6803F0020384
:101FCC00002B1BD07B681B686FF002021A617B68C8
:101FDC0001221A777B681B689B6903F00303002BB3
:101FEC0003D0786800F098F905E0786800F08BF978
:101FFC00786800F09AF97B6800221A77BB6803F0C6
:10200C000403002B20D0FB6803F00403002B1BD02F
:10201C007B681B686FF004021A617B6802221A77D6
:10202C007B681B689B6903F44073002B03D07868B2
:10203C0000F072F905E0786800F065F9786800F056
:10204C0074F97B6800221A77BB6803F00803002B35
:10205C0020D0FB6803F00803002B1BD07B681B68A7
:10206C006FF008021A617B6804221A777B681B6880
:10207C00DB6903F00303002B03D0786800F04CF904
:10208C0005E0786800F03FF9786800F04EF97B685D
:10209C0000221A77BB6803F01003002B20D0FB68DA
:1020AC0003F01003002B1BD07B681B686FF0100231
:1020BC001A617B6808221A777B681B68DB6903F45A
:1020CC004073002B03D0786800F026F905E078689F
:1020DC0000F019F9786800F028F97B6800221A776B
:1020EC00BB6803F00103002B0CD0FB6803F0010369
:1020FC00002B07D07B681B686FF001021A617868AF
:10210C00FEF74CFEBB6803F08003002B0CD0FB6881
:10211C0003F08003002B07D07B681B686FF08002F4
:10212C001A61786800F06FFABB6803F04003002B6B
:10213C000CD0FB6803F04003002B07D07B681B68B6
:10214C006FF040021A61786800F0F8F8BB6803F091
:10215C002003002B0CD0FB6803F02003002B07D0CE
:10216C007B681B686FF020021A61786800F042FAF5
:10217C0000BF1037BD4680BD80B584B000AF78601D
:10218C0039600023FB737B6893F83C30012B01D141
:10219C000223B4E07B68012283F83C207B68022296
:1021AC0083F83D207B681B689B68BB60BB6823F091
:1021BC007703BB60BB6823F47F43BB607B681B6801
:1021CC00BA689A603B681B68B3F5005F3ED0B3F504
:1021DC00005F00F28780B3F5805F00F08680B3F576
:1021EC00805F7FD8702B1AD0702B7BD8602B50D08F
:1021FC00602B77D8502B3CD0502B73D8402B58D019
:10220C00402B6FD8302B64D0302B6BD8202B60D068
:10221C00202B67D8002B5CD0102B5AD062E07B6847
:10222C0018683B6899683B685A683B68DB6800F043
:10223C006AF97B681B689B68BB60BB6843F07703DB
:10224C00BB607B681B68BA689A604FE07B68186853
:10225C003B6899683B685A683B68DB6800F053F947
:10226C007B681B689A687B681B6842F480429A60A2
:10227C003CE07B6818683B6859683B68DB681A4629
:10228C0000F0CAF87B681B685021184600F021F951
:10229C002CE07B6818683B6859683B68DB681A4619
:1022AC0000F0E8F87B681B686021184600F011F913
:1022BC001CE07B6818683B6859683B68DB681A4609
:1022CC0000F0AAF87B681B684021184600F001F961
:1022DC000CE07B681A683B681B681946104600F0D6
:1022EC00F8F803E00123FB7300E000BF7B680122D8
:1022FC0083F83D207B68002283F83C20FB7B18464A
:10230C001037BD4680BD80B483B000AF786000BF8D
:10231C000C37BD4680BC704780B483B000AF78608A
:10232C0000BF0C37BD4680BC704780B483B000AF93
:10233C00786000BF0C37BD4680BC704780B483B05A
:10234C0000AF786000BF0C37BD4680BC7047000002
:10235C0080B485B000AF786039607B681B68FB6027
:10236C007B682B4A934207D07B68B3F1804F03D034
:10237C007B68284A934208D1FB6823F07003FB600A
:10238C003B685B68FA681343FB607B68204A9342A6
:10239C0007D07B68B3F1804F03D07B681D4A934212
:1023AC0008D1FB6823F44073FB603B68DB68FA6878
:1023BC001343FB60FB6823F080023B685B691343AB
:1023CC00FB607B68FA681A603B689A687B68DA6223
:1023DC003B681A687B689A627B680D4A934203D10A
:1023EC003B681A697B681A637B6801225A617B68B7
:1023FC001B6903F00103002B05D07B681B6923F0DC
:10240C0001027B681A6100BF1437BD4680BC70475F
:10241C00002C01400004004080B487B000AFF8608D
:10242C00B9607A60FB681B6A7B61FB681B6A23F0EE
:10243C000102FB681A62FB689B693B613B6923F0F4
:10244C00F0033B617B681B013A6913433B617B6979
:10245C0023F00A037B617A69BB6813437B61FB68D9
:10246C003A699A61FB687A691A6200BF1C37BD46EB
:10247C0080BC704780B487B000AFF860B9607A60F8
:10248C00FB681B6A7B61FB681B6A23F01002FB680C
:10249C001A62FB689B693B613B6923F470433B61A7
:1024AC007B681B033A6913433B617B6923F0A003F0
:1024BC007B61BB681B017A6913437B61FB683A69DA
:1024CC009A61FB687A691A6200BF1C37BD4680BCF2
:1024DC00704780B485B000AF786039607B689B68CA
:1024EC00FB60FB6823F07003FB603A68FB681343E6
:1024FC0043F00703FB607B68FA689A6000BF1437EF
:10250C00BD4680BC704780B487B000AFF860B9603E
:10251C007A603B60FB689B687B617B6923F47F433B
:10252C007B613B681A027B681A43BB6813437A6968
:10253C0013437B61FB687A699A6000BF1C37BD4608
:10254C0080BC704780B485B000AF786039607B6820
:10255C0093F83C30012B01D1022341E07B6801222E
:10256C0083F83C207B68022283F83D207B681B6843
:10257C005B68FB607B681B689B68BB60FB6823F037
:10258C007003FB603B681B68FA681343FB607B6855
:10259C001B68FA685A607B681B68144A934209D01E
:1025AC007B681B68B3F1804F04D07B681B68104AB2
:1025BC0093420CD1BB6823F08003BB603B685B6823
:1025CC00BA681343BB607B681B68BA689A607B6807
:1025DC00012283F83D207B68002283F83C200023F5
:1025EC0018461437BD4680BC704700BF002C014014
:1025FC000004004080B483B000AF786000BF0C379B
:10260C00BD4680BC704780B483B000AF786000BF1B
:10261C000C37BD4680BC704770B500260C4D0D4C78
:10262C00641BA410A64209D100F022F800260A4D22
:10263C000A4C641BA410A64205D170BD55F8043B8E
:10264C0098470136EEE755F8043B98470136F2E718
:10265C00C0260008C0260008C0260008C4260008B2
:10266C0003460244934200D1704703F8011BF9E77B
:10267C00F8B500BFF8BC08BC9E467047F8B500BF63
:08268C00F8BC08BC9E46704733
:10269400000000000000000001020304060708090E
:1026A40000000000010203040203040506070809F0
:0C26B4000A0B0C0D0E0F101001020000AC
:0426C00031010008DC
:0426C4000D010008FC
:0C26C80000127A00100000000100000069
:0400000508000FA53B
:00000001FF
